{
  "contractName": "SimpleStorage",
  "abi": [
    {
      "constant": false,
      "inputs": [
        {
          "name": "fileHash",
          "type": "string"
        },
        {
          "name": "publisher",
          "type": "string"
        },
        {
          "name": "publishTime",
          "type": "uint256"
        }
      ],
      "name": "set",
      "outputs": [],
      "payable": false,
      "stateMutability": "nonpayable",
      "type": "function"
    },
    {
      "constant": true,
      "inputs": [
        {
          "name": "fileHash",
          "type": "string"
        }
      ],
      "name": "get",
      "outputs": [
        {
          "name": "",
          "type": "string"
        },
        {
          "name": "",
          "type": "string"
        },
        {
          "name": "",
          "type": "uint256"
        }
      ],
      "payable": false,
      "stateMutability": "view",
      "type": "function"
    }
  ],
  "bytecode": "0x6060604052341561000f57600080fd5b6106548061001e6000396000f30060606040526004361061004c576000357c0100000000000000000000000000000000000000000000000000000000900463ffffffff16806347c8169914610051578063693ec85e146100fa575b600080fd5b341561005c57600080fd5b6100f8600480803590602001908201803590602001908080601f0160208091040260200160405190810160405280939291908181526020018383808284378201915050505050509190803590602001908201803590602001908080601f01602080910402602001604051908101604052809392919081815260200183838082843782019150505050505091908035906020019091905050610243565b005b341561010557600080fd5b610155600480803590602001908201803590602001908080601f01602080910402602001604051908101604052809392919081815260200183838082843782019150505050505091905050610316565b604051808060200180602001848152602001838103835286818151815260200191508051906020019080838360005b8381101561019f578082015181840152602081019050610184565b50505050905090810190601f1680156101cc5780820380516001836020036101000a031916815260200191505b50838103825285818151815260200191508051906020019080838360005b838110156102055780820151818401526020810190506101ea565b50505050905090810190601f1680156102325780820380516001836020036101000a031916815260200191505b509550505050505060405180910390f35b606060405190810160405280848152602001838152602001828152506000846040518082805190602001908083835b6020831015156102975780518252602082019150602081019050602083039250610272565b6001836020036101000a038019825116818451168082178552505050505050905001915050908152602001604051809103902060008201518160000190805190602001906102e692919061052d565b50602082015181600101908051906020019061030392919061052d565b5060408201518160020155905050505050565b61031e6105ad565b6103266105ad565b60006103306105c1565b6000856040518082805190602001908083835b6020831015156103685780518252602082019150602081019050602083039250610343565b6001836020036101000a038019825116818451168082178552505050505050905001915050908152602001604051809103902060606040519081016040529081600082018054600181600116156101000203166002900480601f0160208091040260200160405190810160405280929190818152602001828054600181600116156101000203166002900480156104405780601f1061041557610100808354040283529160200191610440565b820191906000526020600020905b81548152906001019060200180831161042357829003601f168201915b50505050508152602001600182018054600181600116156101000203166002900480601f0160208091040260200160405190810160405280929190818152602001828054600181600116156101000203166002900480156104e25780601f106104b7576101008083540402835291602001916104e2565b820191906000526020600020905b8154815290600101906020018083116104c557829003601f168201915b5050505050815260200160028201548152505090506000816040015111151561050a57600080fd5b806000015181602001518260400151829250819150935093509350509193909250565b828054600181600116156101000203166002900490600052602060002090601f016020900481019282601f1061056e57805160ff191683800117855561059c565b8280016001018555821561059c579182015b8281111561059b578251825591602001919060010190610580565b5b5090506105a991906105ef565b5090565b602060405190810160405280600081525090565b6060604051908101604052806105d5610614565b81526020016105e2610614565b8152602001600081525090565b61061191905b8082111561060d5760008160009055506001016105f5565b5090565b90565b6020604051908101604052806000815250905600a165627a7a7230582011df71cda6eca1234dff5a420c9ed687e11ee4f537039ec2c224c584695836100029",
  "source": "pragma solidity ^0.4.18;\n\ncontract SimpleStorage {\n\n    struct FileMeta {\n        string fileHash;\n        string publisher;\n        uint publishTime;\n    }\n\n    mapping(string =>FileMeta) files;\n\n    function set(string fileHash,string publisher,uint publishTime) public {\n        files[fileHash] = FileMeta({fileHash:fileHash,publisher:publisher,publishTime:publishTime});\n    }\n\n    function get(string fileHash) view public returns (string,string,uint) {\n        FileMeta memory meta = files[fileHash];\n        require(meta.publishTime>0);\n        return (meta.fileHash,meta.publisher,meta.publishTime);\n    }\n}\n",
  "sourcePath": "/ssd/mynode/BlockchainDemo/contracts/SimpleStorage.sol",
  "compiler": {
    "name": "solc",
    "version": "0.4.19+commit.c4cbbb05.Emscripten.clang"
  },
  "schemaVersion": "1.0.1",
  "updatedAt": "2018-02-24T05:25:46.628Z"
}